:020000040800F2
:1000000000000320DD020008E3020008E702000808
:10001000590300085D030008A50300080000000064
:10002000000000000000000000000000ED030008D8
:10003000F103000800000000F50300085D1400084B
:10004000090400080904000809040008090400085C
:10005000090400080904000809040008090400084C
:10006000090400080904000809040008090400083C
:10007000090400080904000809040008090400082C
:10008000090400080904000809040008090400081C
:10009000090400080904000809040008090400080C
:1000A00009040008090400080904000809040008FC
:1000B00009040008090400080904000809040008EC
:1000C00009040008090400080904000809040008DC
:1000D00009040008090400080904000809040008CC
:1000E00009040008090400080904000809040008BC
:1000F00009040008090400080904000809040008AC
:10010000090400080904000809040008090400089B
:10011000090400080904000809040008090400088B
:10012000090400080904000809040008090400087B
:10013000090400080904000809040008090400086B
:10014000090400080904000809040008090400085B
:10015000090400080904000809040008090400084B
:10016000090400080904000809040008090400083B
:100170000904000809040008090400080000000040
:10018000090400080904000809040008090400081B
:10019000090400080904000809040008090400080B
:1001A00009040008090400080904000800B583B028
:1001B00000F0FCFF384B394A1360394A1360394963
:1001C00000E02146384B99420BD20A684B6801F196
:1001D0000C0488689842F4D952F8041B43F8041BB5
:1001E000F8E72E4B1A68314B9A4200D0FEE72C4BB1
:1001F0001A682F4B9A42F9D1274B2E4A13602E4A88
:1002000013602E4A05E0002043F8040B9A42FAD806
:100210000A462B4B9A4204D2114651F8083B5268C9
:10022000F4E7244B1B6813B9234B1B6803B1FEE7AB
:1002300001F068F9694601A800F048FF214C224B03
:10024000E41AA410002504E01F4B53F8253098470A
:100250000135AC42F8DC1D4C1D4BE41AA4100025FE
:1002600004E01B4B53F8253098470135AC42F8DCCD
:100270000099019801F04EF90546164C164BE41A08
:10028000A41004E0013C144B53F824309847002C90
:10029000F8DC284600F0ECFEBABADECA0000002006
:1002A000740000200C04000824040008785634125E
:1002B000325476987800002024010020240400089D
:1002C000340400083404000834040008340400082E
:1002D00034040008340400083404000808B5FFF7AB
:1002E00065FF00BEFEE71EF0040F0CBFEFF30880B1
:1002F000EFF309807146414A10472DE9F04182B081
:1003000004460D46124B5F6BD3F838809E6A1B6B18
:1003100013F0020F03D00E4BDB6A002B0BDB0D48F2
:1003200000F0E6FE009543463A463146204600F08E
:1003300049FF00BEFEE74BF6AB6100F0BDFF0028B1
:10034000EDD0034B4FF00042DA6202B0BDE8F0811D
:1003500000ED00E0D820000800BEFEE71EF0040F0C
:100360000CBFEFF30880EFF309807146244A104771
:100370002DE9F04182B004460D46084B5F6BD3F87F
:1003800038809E6A064800F0B3FE009543463A4620
:100390003146204600F016FF00BEFEE700ED00E00B
:1003A000E82000081EF0040F0CBFEFF30880EFF305
:1003B00009807146134A10472DE9F04182B0044686
:1003C0000D46084B5F6BD3F838809E6A064800F0F4
:1003D0008FFE009543463A463146204600F0F2FE35
:1003E00000BEFEE700ED00E0F420000800BEFEE7DE
:1003F00000BEFEE700BEFEE770470000FB020008FB
:0C04000071030008B903000800BEFEE70D
:10040C0080210008000000207800002080210008D6
:10041C0000000010000000107800002028010020CF
:08042C000000001000000010A8
:1004400010B50446074B1868074BA3FB0030800922
:1004500000F098F8002221464FF0FF3000F04CF8F1
:10046000002010BD0C000020D34D621008B50B4BCE
:100470001A6842F400721A601A6842F480621A60C4
:100480001A6842F480721A60032000F017F80F20F7
:10049000FFF7D6FF01F074F8002008BD003C0240D1
:1004A000024A136801331360704700BF0C0100203B
:1004B000014B1868704700BF0C01002010B50446BE
:1004C000C31E042B0FD80A4AD36823F4E0631B042D
:1004D0001B0C240204F4E064234343F0BF6343F4A1
:1004E0000033D36010BDA421024800F0F7FDEAE715
:1004F00000ED00E0D81E000870B505460C46164613
:100500000F2A25D80F2C28D81B4BDB68C3F30223F6
:10051000C3F10701042928BF04211A1D062A21D985
:10052000033B4FF0FF3202FA01F124EA01049C4040
:1005300002FA03F326EA03063443002D14DB2401F8
:10054000E4B205F1604505F5614585F8004370BDED
:10055000BC210A4800F0C2FDD4E7BD21074800F0E5
:10056000BDFDD1E70023DCE705F00F052401E4B26F
:10057000034B5C55EBE700BF00ED00E0D81E000820
:1005800014ED00E00138B0F1807F0AD2064B5860CC
:10059000064AF02182F823100020986007221A6092
:1005A00070470120704700BF10E000E000ED00E060
:1005B00010B50446042800D038B9042C0BD0094AE1
:1005C000136823F00403136010BD40F2B311064812
:1005D00000F084FDF1E7034A136843F0040313605D
:1005E000F2E700BF10E000E0D81E00082DE9F04758
:1005F00082B007460E46BA4B98422BD003F5806373
:10060000984227D003F58063984223D003F5806396
:1006100098421FD003F5806398421BD003F5806396
:10062000984217D003F58063984213D003F5806396
:1006300098420FD003F5806398420BD003F5806396
:10064000984207D003F58063984203D0C521A5489E
:1006500000F044FD338833B37368012B1ED9112B8E
:100660001CD0022B1AD0122B18D09F4A934215D0BF
:1006700002F58012934211D002F5801293420DD000
:10068000A2F5F812934209D002F58012934205D0E8
:1006900002F58012934201D0032B09D1B368022BDB
:1006A0000BD8002450E0C6218E4800F017FDD3E798
:1006B000C7218C4800F012FDF0E7C821894800F0FE
:1006C0000DFDEEE7D921874800F008FD6CE0EC2134
:1006D000844800F003FD94E0092300E000238B40F0
:1006E00003430232814941F82230814B1A686FEA94
:1006F000080322EA0801706810F4803F01D048EA3C
:1007000002017B4A1160526803EA0201706810F42A
:10071000003F01D048EA0201754A5160926803EA3D
:100720000201706810F4801F01D048EA0201704A8B
:100730009160D2681340716811F4001F01D048EA3B
:1007400002036B4AD36001340F2C00F2D7800125DD
:10075000A540336803EA050835EA0303F3D173685B
:10076000022B01D0122B2FD13369EBB1092B1BD0F7
:10077000012B19D0022B17D0032B15D0042B13D02B
:10078000052B11D0062B0FD0072B0DD0082B0BD02B
:100790000A2B09D00B2B07D00C2B05D00D2B03D027
:1007A0000F2B01D00E2B8DD1E208083257F8220012
:1007B00004F0070399000F238B4020EA03003369FC
:1007C0008B40034347F822303A684FEA440A032338
:1007D00003FA0AF36FEA030922EA0302736803F0DB
:1007E000030303FA0AF313433B6073685A1E012A9A
:1007F00003D9112B01D0122B14D1F368032B3FF630
:1008000066AFBA6809EA0202F36803FA0AF313430F
:10081000BB607A6822EA05027368C3F30015A5403D
:1008200015437D60FB6809EA0309B36803FA0AF31C
:1008300043EA0903FB60736813F0805F83D00023F1
:1008400001932C4B5A6C42F480425A645B6C03F463
:1008500080430193019BA208911C244B53F8210073
:1008600004F0030399000F238B4020EA03001C4B84
:100870009F423FF433AF03F580639F4222D003F5DC
:1008800080639F4220D003F580639F421ED003F512
:1008900080639F421CD003F580639F421AD003F50A
:1008A00080639F4218D003F580639F4216D003F502
:1008B00080639F4220D003F580639F423FF40CAFDA
:1008C0000A230CE701230AE7022308E7032306E7CC
:1008D000042304E7052302E7062300E70723FEE6D7
:1008E000000002400C1F00080000111000380140F9
:1008F000003C0140003802400823F0E602B0BDE8A9
:10090000F08700BF70B5054614460E4621B1012C94
:1009100008D86CB1AE6170BD40F2B111064800F06C
:10092000DDFBF4E74FF4D971034800F0D7FBF0E7A3
:100930003604AE61EFE700BF0C1F000830B583B08E
:10094000044603680F2B29D8236813F0010F3DD00C
:100950006368012B01D9052B25D1A24B9B6803F0BD
:100960000C03042B29D09F4B9B6803F00C03082B2E
:100970001ED022799C4B1A706368002B50D0FFF771
:1009800097FD0546974B1B6813F4003F1ED1FFF7F8
:100990008FFD401B6428F5D90320E3E1F52193483E
:1009A00000F09CFBD0E7FA21904800F097FBD4E7D9
:1009B0008C4B5B6813F4800FDBD08A4B1B6813F4FD
:1009C000003F03D06368002B00F0C781236813F059
:1009D000020F5CD0E368012B31D823691F2B34D878
:1009E000804B9B6813F00C0F3AD07E4B9B6803F052
:1009F0000C03082B2FD0E368002B73D07C4B012213
:100A00001A60FFF755FD0546764B1B6813F0020F81
:100A100059D1FFF74DFD401B0228F5D90320A1E174
:100A2000FFF746FD05466F4B1B6813F4003FCDD022
:100A3000FFF73EFD401B6428F5D9032092E14FF4F7
:100A400096716A4800F04AFBC7E740F22D116748EB
:100A500000F044FBC4E7634B5B6813F4800FCAD11A
:100A6000604B1B6813F0020F03D0E368012B40F0CA
:100A700076815C48036823F0F8032169F82292FA32
:100A8000A2F2B2FA82F201FA02F21343036023687F
:100A900013F0080F50D06369012B35D86369002B20
:100AA00038D0544B01221A60FFF702FD05464D4B2A
:100AB0005B6F13F0020F3FD1FFF7FAFC401B0228D7
:100AC000F5D903204EE14748036823F0F803216974
:100AD000F82292FAA2F2B2FA82F201FA02F2134377
:100AE0000360D4E7424B00221A60FFF7E1FC0546A1
:100AF0003C4B1B6813F0020FC9D0FFF7D9FC401B19
:100B00000228F5D903202DE140F26D11374800F09D
:100B1000E5FAC3E7374B00221A60FFF7C9FC054628
:100B2000304B5B6F13F0020F06D0FFF7C1FC401B88
:100B30000228F5D9032015E1236813F0040F5FD0D4
:100B4000A368012B01D9052B1FD100230193254B4D
:100B50001A6C42F080521A641B6C03F080530193AC
:100B6000019B254A136843F480731360FFF7A0FCD0
:100B70000546214B1B6813F4807F0CD1FFF798FCCE
:100B8000401B0228F5D90320ECE040F297111748EA
:100B900000F0A4FAD9E7227A184B1A70A36883B13F
:100BA000FFF786FC05460F4B1B6F13F0020F27D192
:100BB000FFF77EFC401B41F288339842F3D90320B3
:100BC000D0E0FFF775FC0546064B1B6F13F0020FD4
:100BD00016D0FFF76DFC401B41F288339842F3D9E1
:100BE0000320BFE000380240023802403C1F0008EA
:100BF00000004742800E47420070004070380240BB
:100C0000A369022B39D8A369002B00F0AA80574AA8
:100C1000926802F00C02082A00F0A680022B40F035
:100C20008880E36913B1B3F5800F2CD1236A3F2B81
:100C30002FD8636A323BB3F5BF7F30D8A36A022B4B
:100C400005D0042B03D0062B01D0082B2DD1E36A4D
:100C5000043B0B2B2FD8464B00221A60FFF728FCD1
:100C60000546424B1B6813F0007F2AD0FFF720FC9B
:100C7000401B0228F5D9032074E04FF4E6713D488B
:100C800000F02CFABFE740F2D5113A4800F026FAFE
:100C9000CCE74FF4EB71374800F020FAC9E740F297
:100CA000D711344800F01AFAC8E74FF4EC71314814
:100CB00000F014FACBE740F2D9112E4800F00EFAFA
:100CC000C9E7E369226A1343616A47F6C07292FA80
:100CD000A2F2B2FA82F201FA02F21343A26A5208B5
:100CE000013A4FF4403191FAA1F1B1FA81F18A4011
:100CF0001343E16A4FF0706292FAA2F2B2FA82F202
:100D000001FA02F21343194A5360194B01221A6087
:100D1000FFF7CEFB0446154B1B6813F0007F06D18E
:100D2000FFF7C6FB001B0228F5D903201AE00020BC
:100D300018E00F4B00221A60FFF7BAFB04460B4B7A
:100D40001B6813F0007F06D0FFF7B2FB001B0228E0
:100D5000F5D9032006E0002004E0012002E0012094
:100D600000E0002003B030BD0120FBE70038024066
:100D7000600047423C1F0008214B9B6803F00C03B6
:100D8000042B38D0082B38D11D4B586800F03F0099
:100D90005B6813F4800F1ED01A4AB2FBF0F2184BB6
:100DA000586847F6C073184093FAA3F3B3FA83F375
:100DB000D84000FB02F0124B5B6803F440334FF461
:100DC000403292FAA2F2B2FA82F2D34001335B00CF
:100DD000B0FBF3F070470C4AB2FBF0F2084B5868D6
:100DE00047F6C073184093FAA3F3B3FA83F3D840DD
:100DF00000FB02F0DFE7034870470348704700BF7D
:100E00000038024000127A000024F40070B5044655
:100E10000D460368013B0E2B5ED80F2D62D88C4B1C
:100E20001B6803F00F03AB4208D2EBB2884A137081
:100E3000136803F00F03AB4240F00481236813F002
:100E4000020F18D0A3687BB1802B0DD0902B0BD054
:100E5000A02B09D0B02B07D0C02B05D0D02B03D0AE
:100E6000E02B01D0F02B43D17A4A936823F0F003B2
:100E7000A1680B439360236813F0010F7FD0636870
:100E8000032B3BD86368012B3ED09A1E012A42D91E
:100E9000704A126812F0020F00F0D6806D498A681D
:100EA00022F0030213438B60FFF702FB06466368E0
:100EB000012B37D0022B44D0032B51D0654B9B68BC
:100EC00013F00C0F5BD0FFF7F3FA801B41F288336D
:100ED0009842F3D90320A8E040F237215E4800F0A1
:100EE000FDF89AE74FF40E715B4800F0F7F896E7CB
:100EF00040F24F21584800F0F1F8B5E740F2562192
:100F0000554800F0EBF8BDE7524A126812F4003F72
:100F1000C4D1012089E04F4A126812F0007FBDD190
:100F2000012082E04B4B9B6803F00C03042B26D07E
:100F3000FFF7BEFA831B41F288329342F2D90320B5
:100F400073E0444B9B6803F00C03082B17D0FFF7AA
:100F5000AFFA801B41F288339842F2D9032064E053
:100F60003C4B9B6803F00C030C2B08D0FFF7A0FA56
:100F7000801B41F288339842F2D9032055E0344B6C
:100F80001B6803F00F03AB4207D9EAB2304B1A706B
:100F90001B6803F00F03AB4258D1236813F0040F12
:100FA00014D0E3685BB1B3F5805F08D0B3F5A05F00
:100FB00005D0B3F5C05F02D0B3F5E05F36D1254A66
:100FC000936823F4E053E1680B439360236813F0C4
:100FD000080F15D023695BB1B3F5805F08D0B3F576
:100FE000A05F05D0B3F5C05F02D0B3F5E05F23D1B9
:100FF000184A936823F46043216943EAC10393606C
:10100000FFF7BAFE134B9B6803F0F003F02292FA4D
:10101000A2F2B2FA82F2D340104AD35CD840104B0D
:1010200018600F20FFF70CFA002070BD4FF42D71EF
:10103000094800F053F8C2E740F2BB21064800F02F
:101040004DF8D5E70120F0E70120EEE70120ECE7BD
:10105000003C0240003802403C1F00086C1F0008A2
:101060000C000020014B1868704700BF0C000020E6
:10107000FEE7000008B5034800F054F80120FFF730
:10108000F7FF00BF7C1F000808B503460C4A126832
:101090005AB10B4A1068033323F003030344094A8F
:1010A000934206D8064A136008BD054A06491160F6
:1010B000EFE700F067FA0C2303604FF0FF30F3E72F
:1010C0007C00002000FC0220280100200123036096
:1010D000014B0B60704700BF0400002008B50A46B2
:1010E0000146024800F004F8FFF7C4FF901F000813
:1010F0000FB400B583B004AB53F8042B01938021E7
:10110000074800F079FA002804DC03B05DF804EB2E
:1011100004B070470146024800F044F8F5E700BF0C
:101120008400002010B5044600F032FA0146204643
:1011300000F038F80121024800F034F810BD00BF7B
:10114000542000082DE9F04385B004460F4643566D
:1011500033BB042528462146ABBE0446384605B0BD
:10116000BDE8F08314F9010B04AA1A4402F8100C2C
:101170000133AB42F6D304AA1344002203F8102C27
:101180004FF00408E94640464946ABBE8046761B10
:10119000002EE3D03546102E28BF10250023E8E7A7
:1011A0000E46F5E708B5FFF7CDFF08BD08B500F01E
:1011B00093F8024A024B9A6008BD00BF0000000885
:1011C00000ED00E0F8B504460D4617461E462748D8
:1011D000FFF78EFF21682648FFF78AFF61682548E0
:1011E000FFF786FFA1682448FFF782FFE1682348E4
:1011F000FFF77EFF21692248FFF77AFF61692148E6
:10120000FFF776FFA1692048FFF772FFE1691F48E9
:10121000FFF76EFF1E48FFF76BFF29461D48FFF7DB
:1012200067FF1D4CE16A1D48FFF762FF216B1C48F8
:10123000FFF75EFFE16B1B48FFF75AFF15F0800FC9
:101240000AD115F4004F0CD11748FFF751FF06994A
:101250001648FFF74DFFF8BD39461548FFF748FF20
:10126000EFE731461348FFF743FFEDE7BC1F0008E7
:10127000CC1F0008DC1F0008EC1F0008FC1F000842
:101280000C2000081C2000082C2000083C2000082E
:101290004C2000085820000800ED00E068200008FD
:1012A0007820000888200008B8200008C020000826
:1012B00098200008A820000883691A888A4201D073
:1012C000002070470268033A012A01D900207047C4
:1012D00002338361012070470C4B1A6842F001020F
:1012E0001A60002199601A6822F0847222F4803218
:1012F0001A60074A5A601A6822F480221A60D9607C
:10130000044B4FF000629A60704700BF0038024003
:101310001030002400ED00E0224B9B6803F00C032A
:10132000042B14D0082B16D01BB11F4B1F4A1A6078
:1013300002E01D4B1D4A1A601A4B9B68C3F303134E
:101340001B4AD15C184A1368CB4013607047164B98
:10135000184A1A60F0E7134B5A685B6803F03F03C2
:1013600012F4800F13D0134AB2FBF3F20D4B5B68FB
:10137000C3F3881303FB02F30A4A5268C2F3014223
:1013800001325200B3FBF2F3074A1360D4E7074A75
:10139000B2FBF3F2034B5B68C3F3881303FB02F366
:1013A000EAE700BF003802400C0000200024F400EF
:1013B0000421000800127A0030B587B00C4A136B84
:1013C00043F0080313634FF4805501950123029302
:1013D000022204920393074C01A92046FFF706F965
:1013E000002229462046FFF78DFA07B030BD00BF26
:1013F00000380240000C02400A4B1B680A4AA2FB5C
:1014000003239B09013BB3F1807F09D2074A536054
:10141000074BF02183F82310002393600723136008
:10142000704700BF0C000020D34D621010E000E0B8
:1014300000ED00E0034B1860024B1B68002BFBD152
:10144000704700BF14010020034B1B681BB1024A08
:101450001368013B136070471401002008B5FFF7C3
:101460001FF8FFF7F1FF08BD30B595B000240194D7
:10147000214B1A6C42F080521A641B6C03F08053AB
:101480000193019B02941D4B1A6842F440421A607A
:101490001B6803F440430293029B012308930993C2
:1014A0004FF480030F93082310934FF4A873119304
:1014B00002251295072313930E9508A8FFF73EFA0D
:1014C0000F230393049505944FF4A05306934FF410
:1014D00080530793052103A8FFF798FCFFF7C2FD8F
:1014E000074BA3FB00308009FFF74CF80420FFF7FF
:1014F0005FF815B030BD00BF0038024000700040FA
:10150000D34D621008B5FEF7B1FFFFF7ADFFFFF74F
:1015100003FF08BD10B51548FFF704FE144B19680A
:101520001448FFF7E5FDFFF767FFFFF745FF0024CD
:1015300011E04FF47A70FFF77DFF00224FF48051E5
:101540000D48FFF7DFF9FA20FFF774FF0134214659
:101550000A48FFF7CDFD01224FF480510648FFF7FE
:10156000D1F9002CE5D040F2EE20E4E71421000888
:101570000C00002028210008000C02404021000837
:1015800070470000014B1868704700BF1000002032
:10159000034613F8012B002AFBD1181A01387047B3
:1015A00030B5141E05469BB0184605DA8B232B6018
:1015B0004FF0FF301BB030BD4FF40273ADF80C306C
:1015C00014BF04F1FF332346029305934FF6FF73D4
:1015D00000910491ADF80E3002461E9B69462846E4
:1015E00000F074F8431CBCBF8B232B60002CE1D0AF
:1015F000009B00221A70DDE707B5009313460A46E8
:10160000014603480068FFF7CBFF03B05DF804FB19
:10161000100000202DE9F0478E689E4282460C465D
:1016200090461F4638D88A8912F4906F32D02568C8
:101630000969A5EB0109656905EB450505EBD5755C
:1016400001334B446D109D4238BF1D46530531D5C3
:10165000294600F09BFB064650B90C23CAF800301F
:10166000A38943F04003A3814FF0FF30BDE8F0872A
:1016700021694A4600F014FBA38923F4906343F0E8
:101680008003A381266165614E44A5EB09052660B0
:10169000A5603E46BE4200D93E46324620684146DD
:1016A00000F00CFBA36822689B1B3244A3602260FD
:1016B0000020DBE72A4600F0C3FB06460028E1D104
:1016C0002169504600F014FBC7E700002DE9F04FF8
:1016D00098468B891B069DB007460D4614460ED5CD
:1016E0000B6963B9402100F051FB2860286120B9E3
:1016F0000C233B604FF0FF30D1E040236B610023AF
:10170000099320238DF82930CDF80C803023DFF8A1
:10171000A8818DF82A304FF0010923469A4613F824
:10172000012B0AB1252AF9D1BAEB040B0BD05B4689
:10173000224629463846FFF76DFF013000F0AA80A7
:10174000099A5A4409929AF80030002B00F0A280BE
:1017500000234FF0FF32CDE905230AF1010A04937B
:1017600007938DF853301A935446052214F8011B41
:10177000514800F045FA049AD8B9D00644BF202356
:101780008DF85330110744BF2B238DF853309AF84E
:1017900000302A2B15D0079A544600204FF00A0C2F
:1017A000214611F8013B303B092B4ED9B0B10792CD
:1017B00014E0A0EB080309FA03F313430493A246D1
:1017C000D2E7039B191D1B680391002BBBBF5B4233
:1017D00042F0020207930793B8BF049223782E2B9E
:1017E0000CD163782A2B35D1039B1A1D1B680392F9
:1017F000002BB8BF4FF0FF3302340593DFF8C8A0C9
:1018000021780322504600F0FBF940B14023A0EBC1
:101810000A0003FA00F0049B03430134049314F814
:10182000011B26488DF82810062200F0E9F900284F
:1018300038D0234B1BBB039B073323F0070308332C
:101840000393099B3344099367E70CFB02320C4670
:101850000120A5E700230134059319464FF00A0C37
:10186000204610F8012B303A092A03D9002BC5D0A5
:101870000591C3E70CFB012104460123F0E703AB0C
:1018800000932A460F4B04A93846AFF30080421C50
:101890000646D6D1AB895B063FF52CAF09981DB043
:1018A000BDE8F08F03AB00932A46064B04A93846E7
:1018B00000F07AF8EBE700BF4B2100085521000843
:1018C0000000000015160008512100082DE9F0471E
:1018D000164699468A680B69DDF820809342B8BFA6
:1018E0001346336091F8432007460C460AB1013392
:1018F00033602368990642BF33680233336025683A
:1019000015F0060506D104F1190AE36832689B1A3E
:10191000AB4226DC94F84320131E226818BF012333
:1019200092062BD404F1430249463846C0470130A1
:101930001ED02368E568326803F00603042B08BF55
:10194000AD1AA36822690CBF25EAE575002593420C
:10195000C4BF9B1AED1800261A34B5421AD10020D4
:1019600008E00123524649463846C047013003D1BA
:101970004FF0FF30BDE8F0870135C6E7E1185A1C8B
:10198000302081F84300224494F8451082F8431037
:101990000233C7E70123224649463846C047013093
:1019A000E6D00136D9E700002DE9FF470C46914605
:1019B000277E0C99782F80469A4604F1430207D877
:1019C000622F0AD8002F00F0D880582F00F0A38093
:1019D00004F1420684F842703AE0A7F16303152B44
:1019E000F6D801A050F823F0411A0008551A000853
:1019F000D1190008D1190008D1190008D11900081F
:101A0000551A0008D1190008D1190008D119000889
:101A1000D1190008611B0008851A0008431B000843
:101A2000D1190008D1190008831B0008D11900083A
:101A3000851A0008D1190008D11900084B1B0008AD
:101A40000B681A1D1B680A6004F1420684F84230D4
:101A50000123A3E0256808682E0600F104030AD5D7
:101A600005680B60002D03DA2D236D4284F84330A6
:101A70005E480A2319E015F0400F05680B6018BF97
:101A80002DB2EFE70B682568181D0860280601D500
:101A90001D6802E06906FBD51D8854486F2F0CBFF6
:101AA00008230A23002184F843106668A660002EEC
:101AB000A2BF216821F0040121600DB9002E4DD094
:101AC0001646B5FBF3F103FB1157C75D06F8017D20
:101AD0002F46BB420D46F4D9082B0BD12368DF07F4
:101AE00008D5236961689942DEBF302306F8013CBE
:101AF00006F1FF36921B2261CDF800A04B4603AAE7
:101B000021464046FFF7E2FE01304CD14FF0FF3056
:101B100004B0BDE8F087354884F8457023680E6846
:101B20001F0656F8045B0E6014D5D90744BF43F076
:101B3000200323601DB9236823F0200323601023B2
:101B4000B0E7236843F0200323607823284884F813
:101B50004530E3E75E0648BFADB2E6E71646BBE7B1
:101B60000B68266860691D1D0D6035061B6801D570
:101B7000186002E07106FBD5188000232361164629
:101B8000BAE70B681A1D0A601E68626800213046B9
:101B900000F036F808B1801B6060636823610023A1
:101BA00084F84330A8E72369324649464046D04787
:101BB0000130ABD023689B0713D4E068039B9842A5
:101BC000B8BF1846A4E70123324649464046D047ED
:101BD00001309BD00135E36803995B1AAB42F2DC1C
:101BE000EBE7002504F11906F5E700BF5C210008CA
:101BF0006D2100080000000000000000000000004F
:101C000001F0FF01102A2BDB10F0070F08D010F8AD
:101C1000013B013A8B422DD010F0070F42B3F6D1B1
:101C2000F0B441EA012141EA014122F007047FF0CA
:101C300000070023F0E80256083C85EA010586EA21
:101C4000010685FA47F5A3FA87F586FA47F6A5FA5D
:101C500087F68EB9EED1F0BC01F0FF0102F0070269
:101C600032B110F8013B013A83EA010313B1F8D114
:101C70000020704701387047002D06BF35460338F5
:101C8000073815F0010F07D1013015F4807F02BF2E
:101C9000013015F4C03F0130F0BC0138704700BF7F
:101CA0000A44914200F1FF3300D1704710B511F89A
:101CB000014B03F8014F9142F9D110BD884210B594
:101CC00001EB020402D98442234607D8431EA142F5
:101CD00008D011F8012B03F8012FF8E70244014660
:101CE0008A4200D110BD13F8014D02F8014DF7E70B
:101CF00038B50546002945D051F8043C0C1F002B8F
:101D0000B8BFE41800F0D2F81F4A1368104633B980
:101D1000636014602846BDE8384000F0CDB8A342A7
:101D20000BD921686218934204BF1A685B6863602C
:101D300004BF521822600460ECE71A465B680BB1DE
:101D4000A342FAD911685018A0420BD1206801446F
:101D5000501883421160DDD118685B6853600144FC
:101D60001160D7E702D90C232B60D3E72068211834
:101D70008B4204BF19685B68636004BF0918216067
:101D80005460C7E738BD00BF04010020F8B5CD1C82
:101D900025F0030508350C2D38BF0C25002D06460F
:101DA00001DBA94203D90C2333600020F8BD00F009
:101DB0007DF821490A6814469CB9204F3B6823B935
:101DC0002146304600F062F838602946304600F07F
:101DD0005DF8431C23D10C233360304600F06CF8CF
:101DE000E3E723685B1B17D40B2B03D923601C4448
:101DF000256004E06368A2420CBF0B60536030466C
:101E000000F05AF804F10B00231D20F00700C21A5D
:101E1000CCD01B1AA350C9E722466468CCE7C41C87
:101E200024F00304A042E3D0211A304600F02EF83B
:101E30000130DDD1CFE700BF040100200801002000
:101E4000F8B5074614460E4621B9BDE8F8401146DC
:101E5000FFF79CBF22B9FFF74BFF25462846F8BD88
:101E600000F030F8A0420FD221463846FFF78EFF2F
:101E700005460028F2D031462246FFF711FF3146D1
:101E80003846FFF735FFE9E73546E7E738B5064D51
:101E90000023044608462B60FFF7F6F8431C02D1E6
:101EA0002B6803B1236038BD10010020014800F009
:101EB00011B800BF1C010020014800F00CB800BFA1
:101EC0001C01002051F8043C181F002BBCBF0B580C
:101ED000C0187047704770472E2E2F737973746542
:101EE0006D2F7372632F73746D333266342D686196
:101EF0006C2F73746D3332663478785F68616C5F11
:101F0000636F727465782E63000000002E2E2F73AD
:101F1000797374656D2F7372632F73746D333266CA
:101F2000342D68616C2F73746D3332663478785F4A
:101F300068616C5F6770696F2E6300002E2E2F73CF
:101F4000797374656D2F7372632F73746D3332669A
:101F5000342D68616C2F73746D3332663478785F1A
:101F600068616C5F7263632E630000000000000014
:101F700001020304010203040607080961626F728B
:101F80007428292C2065786974696E672E2E2E00BE
:101F90006173736572745F706172616D2829206668
:101FA00061696C65643A2066696C6520222573223C
:101FB0002C206C696E652025640A000053746163EF
:101FC0006B206672616D653A0A0000002052302075
:101FD0003D2020253038580A0000000020523120D2
:101FE0003D2020253038580A0000000020523220C1
:101FF0003D2020253038580A0000000020523320B0
:102000003D2020253038580A00000000205231328F
:10201000203D20253038580A00000000204C522076
:102020003D2020253038580A000000002050432071
:102030003D2020253038580A00000000205053521F
:10204000203D20253038580A000000004653522F0A
:102050004641523A0A0000002043465352203D2098
:1020600020253038580A00002048465352203D2091
:1020700020253038580A00002044465352203D2085
:1020800020253038580A00002041465352203D2078
:1020900020253038580A0000204D4D464152203D41
:1020A00020253038580A00002042464152203D2069
:1020B00020253038580A00004D6973630A0000007B
:1020C000204C522F4558435F52455455524E3D20A7
:1020D000253038580A0000005B486172644661751B
:1020E0006C745D0A000000005B4275734661756C9C
:1020F000745D0A005B55736167654661756C745D5C
:102100000A000000000000000000000001020304BB
:102110000607080948656C6C6F2041524D20576FC7
:10212000726C64210000000053797374656D206344
:102130006C6F636B3A20257520487A0A0000000016
:102140005365636F6E642025750A00232D302B20A4
:1021500000686C4C00656667454647003031323395
:102160003435363738394142434445460030313200
:0E217000333435363738396162636465660092
:102180007856341280000020000000000024F40083
:10219000140000200000000000000000000000000B
:1021A000000000000000000000000000000000002F
:1021B000000000000000000000000000000000001F
:1021C000000000000000000000000000000000000F
:1021D00000000000000000000000000000000000FF
:1021E00000000000000000000000000000000000EF
:0821F000000000003254769853
:04000005080001AD41
:00000001FF
